:0600000002009B02040354
:03000B0002040BE1
:03001300020413D1
:03001B0002041BC1
:03002300020423B1
:03002B0002042BA1
:0300330002043391
:03003B0002043B81
:0300430002044371
:03004B0002044B61
:0300530002045351
:03005B0002045B41
:0300630002046331
:03006B0002046B21
:0300730002047311
:03007B0002047B01
:03008300020483F1
:03008B0002048BE1
:03009300020493D1
:08009B007581641200A380FED0
:2000A300120292E5EFF56130E10375610212F800E58224FF92007562007FFF2082020562FB
:2000C3008F06EE14FF70F4C296E56120E61630001374382562400D90FBFEE493F5C475C3B5
:2000E300011204001200EC80FBC29612030DAF82D296BF21028017BF22028012BF23028008
:200103000DBF26028008BF29028003BF310FC00712030DAE82D007BE2002800122BF2100A1
:20012300500122EF24CE500122EF24DFFE240A83F582EE241583F583E4735F627581A4CE3B
:20014300E5457B8181818181817C7F010101010101010201020202020202020202028275E1
:20016300824E12030390FBFEE493F58212030302028212F83602028212F85C0202821203B8
:200183000DAE828E6375640012030DAE828E05E44263ED426412030DAE82BE20030202829B
:2001A3002212030DAF82C00712030DAE82D007BE20028001228563828564830563E4B5631A
:2001C3000205648F0812F86C0202828563828564830563E4B56302056412F89612030302BF
:2001E300028212030DE582FE24BF5001227D00C3ED9E5019ED2421F9C006C005C0011203DB
:200203000DE582D001D005D006F70D80E2C00612030DAD82D006BD20697D00C3ED9E505FD8
:200223008563828564830563E4B563020564ED2421F98708C006C00512F86CD005D0060DA3
:2002430080D912030DAE82C00612030DAD82D006BD202F7D00C3ED9E5025856382856483E1
:200263000563E4B563020564C006C00512F896120303D005D0060D80DC43EF10800122026E
:20028300028622758212120303758210020303C2AFAFD974BF5FF5D975B64075B28F75A9E9
:2002A30000758840758920758E08758D9675981275FF807E5E7F011EBEFF011FEE4F70F72F
:2002C30075EF0675A41075A70F75A41075A70075E10143D40C43A404AFA474F75FF5A4AF4E
:2002E300A474FB5FF5A443D56075A70F43A56075A700740F55E44407F5E4C28875E3402205
:20F8000090F7FEE493FFBF3D0B90F7FFE493FFBFC20280047F0080027F018F8222AE82AF50
:20F820008374FC2F500574082F5002C322D32275B7A575B7F1227E007FF4C007C00612F8E2
:20F840002FD006D007758F038E828F8374FFF0758F00EF24FCFFC3940450DF2212F82F75D4
:20F860008F0790000074FFF0758F0022AE82AF83C007C00612F81DD006D0075018C007C027
:1BF880000612F82FD006D007758F018E828F83E508F0758F0022E493F5822247
:01FBFF00FE07
:01FBFE0043C3
:13030300AF8210990280FB8F992210980280FB859982225F
:00000001FF

